:020000040000FA
:100000000C9448090C9470090C9470090C947009B4
:100010000C9470090C9470090C9470090C9470097C
:100020000C9470090C9470090C9470090C9470096C
:100030000C9470090C9470090C9470090C9470095C
:100040000C944E1C0C9470090C94171F0C94491FAF
:100050000C9470090C9470090C9470090C9470093C
:100060000C94970D0C947009FFFFFFFFFFFFFFFF3B
:10007000FFFFFFFFFFFFFFFFFFFFFFFFFFFFFFFF90
:10008000FFFFFFFFFFFFFFFFFFFFFFFF8000C3FF3A
:10009000C00C0007FFFFFFFFFFFFFFFF8000C3FF53
:1000A000C00C0007FFFFFFFFFFFFFFFF9FF8FFFFF0
:1000B000F3FC7FE7FFFFFFFFFFFFFFFF9FF8FFFF5E
:1000C000F3FC7FE7FFFFFFFFFFFFFFFF9818CF0064
:1000D000FFFC6067FFFFFFFFFFFFFFFF9818CF00E7
:1000E000FFFC6067FFFFFFFFFFFFFFFF9818C330B3
:1000F00000CC6067FFFFFFFFFFFFFFFF9818C330D2
:1001000000CC6067FFFFFFFFFFFFFFFF9818C03FB5
:10011000CF3C6067FFFFFFFFFFFFFFFF9818C03F66
:10012000CF3C6067FFFFFFFFFFFFFFFF9FF8E3CFBC
:10013000FC0C7FE7FFFFFFFFFFFFFFFF9FF8F3CF00
:10014000FC0C7FE7FFFFFFFFFFFFFFFF8000CDCC30
:10015000CC4C0007FFFFFFFFFFFFFFFF8000CCCC70
:10016000CCCC0007FFFFFFFFFFFFFFFF8001CCCCDF
:10017000C4CE0007FFFFFFFFFFFFFFFFFFFFF33FBE
:10018000C0CFFFFFFFFFFFFFFFFFFFFFFFFCF73FB9
:10019000C04FFFFFFFFFFFFFFFFFFFFF8078CFFC97
:1001A0000031E067FFFFFFFFFFFFFFFF8078CFFC1C
:1001B0000013C067FFFFFFFFFFFFFFFFFF8733FC58
:1001C000FC0C07E7FFFFFFFFFFFFFFFFFF8733FC8C
:1001D000FC0C07E7FFFFFFFFFFFFFFFFE198CFFFEA
:1001E000CFF39E1FFFFFFFFFFFFFFFFFE19CCFFF4D
:1001F000CFF19E1FFFFFFFFFFFFFFFFFFE1F3F032B
:100200000C3067E7FFFFFFFFFFFFFFFFFE1F3F030D
:100210000C3067E7FFFFFFFFFFFFFFFF8180C33068
:10022000330FF87FFFFFFFFFFFFFFFFF8180C33029
:10023000330FF87FFFFFFFFFFFFFFFFFE67FCC3CA0
:10024000CF3C7E07FFFFFFFFFFFFFFFFE67FCC3CB9
:10025000CF3C7E07FFFFFFFFFFFFFFFFE00000C076
:10026000FF0C7E07FFFFFFFFFFFFFFFFE00000C066
:10027000FF0E7E07FFFFFFFFFFFFFFFF819F3CCCCC
:100280003C00079FFFFFFFFFFFFFFFFF819F3CCC6C
:100290003C00079FFFFFFFFFFFFFFFFF9E78CF336C
:1002A0003F0FE19FFFFFFFFFFFFFFFFF9E78CF3370
:1002B0003F0FE19FFFFFFFFFFFFFFFFFF9FF33C08D
:1002C000F3FF981FFFFFFFFFFFFFFFFFF9FF33C0A2
:1002D000F3FF981FFFFFFFFFFFFFFFFF99FC0C03D9
:1002E00003CE067FFFFFFFFFFFFFFFFF99F80C0320
:1002F00003CC067FFFFFFFFFFFFFFFFFFE1F83CC46
:10030000C0FC067FFFFFFFFFFFFFFFFFFE1FC3CC08
:10031000C0FE067FFFFFFFFFFFFFFFFFE02020037F
:100320000CE0007FFFFFFFFFFFFFFFFFE0603003F7
:100330000CC0007FFFFFFFFFFFFFFFFFFFFFC0C3F9
:10034000FCC7C007FFFFFFFFFFFFFFFFFFFFC0C3AA
:10035000FCCFE007FFFFFFFFFFFFFFFF8001DF0390
:10036000CC4EE117FFFFFFFFFFFFFFFF8000FF0301
:10037000CC0C619FFFFFFFFFFFFFFFFF8000FF032B
:10038000CC0EE19FFFFFFFFFFFFFFFFF9FF8F0FF95
:10039000FCCFE187FFFFFFFFFFFFFFFF9FF8F0FFAC
:1003A000FCC7C187FFFFFFFFFFFFFFFF9818F3CCDB
:1003B00033C00607FFFFFFFFFFFFFFFF9818F3CCD6
:1003C00033C00607FFFFFFFFFFFFFFFF9818CF0CAA
:1003D000033381E7FFFFFFFFFFFFFFFF9818CF0CFC
:1003E000033381E7FFFFFFFFFFFFFFFF9818C033D4
:1003F000CFCF9E67FFFFFFFFFFFFFFFF9818C033BF
:10040000CFCF9E67FFFFFFFFFFFFFFFF9FF8C03CBE
:100410000FC1999FFFFFFFFFFFFFFFFF9FF8C03C49
:100420000FC3999FFFFFFFFFFFFFFFFF8000C3CCBB
:10043000CC007F9FFFFFFFFFFFFFFFFF8000C3CCCB
:10044000CC007F9FFFFFFFFFFFFFFFFFFFFFFFFFCE
:10045000FFFFFFFFFFFFFFFFFFFFFFFFFFFFFFFFAC
:10046000FFFFFFFFFFFFFFFF000000000000000094
:100470000000000000000000000604000000400032
:100480000200300000000000001F8E3F7C39F01891
:100490000F7EFCE33EE37E0000390F0C603B901FB3
:1004A0000C60CCE730F3380000301B0C7C3B0003C1
:1004B0000E7DC0F73EFB380000319B8C7C3B000674
:1004C000077DC6FF3EDF380000399F8C603B900EF1
:1004D0000760C6DB30CF3800001FB9CC7E39F70C7F
:1004E0000E7EFEDB3EE73800000E308C7C10E60C02
:1004F0000C7C38C13E4210000000000000000400E7
:1005000000000000000000000000000000000000EB
:1005100000000000000000000000000000000000DB
:1005200000000000000000000000000000000000CB
:1005300000000000000000000000000000000000BB
:100540000000000000000000071CCFC000001FB327
:100550001DFBF0FDF3BFFDF80F1CCCE1E79E073358
:100560009DC33831871CE19C0F1ECC618618063371
:10057000BDFB3031F70CFD9C199BCC61F7DF0633D6
:10058000FDFBF031F38CFDF81F99CCE030C306334E
:10059000ED837031818CE1B83FD9CFC1F7DF0733EC
:1005A0006DFB3033F79CFD9830D8CF01E79E0632C3
:1005B0004DFB3031F20CFD8C00000000000000000B
:1005C000000000000000000000000000000000002B
:1005D000000000000000000000000000000000001B
:1005E000000000000000000000000000000000000B
:1005F00000000000000000000000000000000000FB
:1006000000000000000000000000000000000000EA
:1006100000000000000000000000000000000000DA
:1006200000000000000000000000000000000000CA
:1006300000000000000000000000000000000000BA
:10064000000000000000000000001001980303F803
:10065000001800000018000000001C01990B430A5C
:10066000200A20410238000000001ED8F7DBE61FF8
:100670007B6F7BE3DF780000000013D866DB630B41
:100680004B6B4B625BC8000000001E7067DB63EBC6
:100690007BEB7B63DB780000000000600000000063
:1006A000000000000000000000000040000000000A
:1006B000000000000000000000000000000000003A
:1006C000000000000000000000000000000000002A
:1006D00000000000000000000000000003101840AF
:1006E00024018400000000000000000007301858BA
:1006F00064018600000000000000000007BEDF5C0F
:1007000067B7F6F000000000000000000DB2DB58F3
:1007100034B595B000000000000000000FBE5B582B
:1007200034B5F7B0000000000000000008D6DB5C24
:1007300064BCB6F0000000000000000000000000F3
:1007400000000000000000000000000000000000A9
:100750000000000000000000000000000000000099
:100760000000000000000000000000000000000089
:100770000000000000000000000000000000000079
:100780000000000000000000000000000000000069
:10079000000000000000000000000003E000000076
:1007A00001802200000000000000000368C4C314A0
:1007B00091E4B632C0000000000000036FAD87BEB8
:1007C000B1FDBF7BC000000000000003C9E4C49677
:1007D000B1BDA24A40000000000000030CEDC7F6C6
:1007E00061E7BB7A4000000000000000000000004C
:1007F000C000000000000000000000000000000039
:100800008000000000000000000000000000000068
:1008100000000000000000000000000000000000D8
:1008200000000000000000000000000000000000C8
:1008300000000000000000000000000000000000B8
:1008400000000000000000000000000000000000A8
:100850000000000000000000000000000000000098
:10086000000000000000000000000000003E5B4FA0
:100870005B3E3E6B4F6B3E1C3E7C3E1C183C7E3C00
:10088000181C577D571C1C5E7F5E1C00183C18000E
:10089000FFE7C3E7FF0018241800FFE7DBE7FF309E
:1008A000483A060E2629792926407F050507407F0C
:1008B00005253F5A3CE73C5A7F3E1C1C08081C1C7F
:1008C0003E7F14227F22145F5F005F5F06097F0175
:1008D0007F006689956A606060606094A2FFA29460
:1008E00008047E040810207E201008082A1C08082E
:1008F0001C2A08081E101010100C1E0C1E0C30387C
:100900003E3830060E3E0E06000000000000005F7C
:1009100000000007000700147F147F14242A7F2A98
:10092000122313086462364956205000080703005A
:10093000001C2241000041221C002A1C7F1C2A08A6
:10094000083E080800807030000808080808000009
:1009500060600020100804023E5149453E00427F7D
:10096000400072494949462141494D331814127FCC
:100970001027454545393C4A49493141211109076C
:100980003649494936464949291E000014000000ED
:1009900040340000000814224114141414140041BF
:1009A00022140802015909063E415D594E7C12117C
:1009B000127C7F494949363E414141227F414141B4
:1009C0003E7F494949417F090909013E414151732F
:1009D0007F0808087F00417F41002040413F017FA0
:1009E000081422417F404040407F021C027F7F0468
:1009F00008107F3E4141413E7F090909063E4151B1
:100A0000215E7F09192946264949493203017F01A0
:100A1000033F4040403F1F2040201F3F4038403FA1
:100A2000631408146303047804036159494D4300B7
:100A30007F4141410204081020004141417F0402EE
:100A40000102044040404040000307080020545485
:100A500078407F2844443838444444283844442863
:100A60007F385454541800087E090218A4A49C78B6
:100A70007F0804047800447D40002040403D007F12
:100A80001028440000417F40007C047804787C08F2
:100A90000404783844444438FC18242418182424C6
:100AA00018FC7C08040408485454542404043F44AB
:100AB000243C4040207C1C2040201C3C4030403CDA
:100AC00044281028444C9090907C4464544C44003A
:100AD000083641000000770000004136080002019E
:100AE0000204023C2623263C1EA1A161123A40408A
:100AF000207A385454555921555579412254547807
:100B000042215554784020545579400C1E5272129F
:100B10003955555559395454545939555454580028
:100B200000457C410002457D420001457C407D122C
:100B300011127DF0282528F07C545545002054548E
:100B40007C547C0A097F4932494949323A44444439
:100B50003A324A4848303A4141217A3A4240207874
:100B6000009DA0A07D3D4242423D3D4040403D3C75
:100B700024FF2424487E4943662B2FFC2F2BFF099A
:100B800029F620C0887E090320545479410000448E
:100B90007D413048484A32384040227A007A0A0A79
:100BA000727D0D19317D2629292F282629292926EC
:100BB00030484D4020380808080808080808382F31
:100BC00010C8ACBA2F102834FA00007B00000814BB
:100BD0002A142222142A14085500550055AA55AA91
:100BE00055AAFF55FF55FF000000FF00101010FF31
:100BF00000141414FF001010FF00FF1010F010F08C
:100C0000141414FC001414F700FF0000FF00FF147C
:100C100014F404FC141417101F10101F101F1414C8
:100C2000141F00101010F0000000001F1010101012
:100C30001F10101010F010000000FF101010101006
:100C400010101010FF10000000FF140000FF00FF44
:100C500000001F10170000FC04F4141417101714E0
:100C600014F404F40000FF00F71414141414141402
:100C7000F700F7141414171410101F101F14141475
:100C8000F4141010F010F000001F101F0000001FDF
:100C900014000000FC140000F010F01010FF10FF12
:100CA000141414FF141010101F00000000F010FFA7
:100CB000FFFFFFFFF0F0F0F0F0FFFFFF000000008B
:100CC00000FFFF0F0F0F0F0F3844443844FC4A4A0F
:100CD0004A347E02020606027E027E0263554941C4
:100CE000633844443C04407E201E2006027E0202FB
:100CF00099A5E7A5991C2A492A1C4C7201724C300F
:100D00004A4D4D303048784830BC625A463D3E49E5
:100D10004949007E0101017E2A2A2A2A2A44445F89
:100D2000444440514A444040444A51400000FF017D
:100D300003E080FF000008086B6B0836123624368B
:100D4000060F090F060000181800000010100030F0
:100D500040FF0101001F01011E00191D1712003C78
:100D60003C3C3C00000000002200FF210000010389
:100D7000070F1F3F7F0080C0E0F0F8FCFEDB40A4BF
:100D8000A62EAF2000A1C8D300408DAED580A8000C
:100D900000600000000000000000000000000000F3
:100DA000E00000000000000000000000000001E082
:100DB0000000000000000000000000000001F00042
:100DC00000000000000000000000000003F0000030
:100DD000000000000000000000000007F00000001C
:100DE0000000000000000000000007F80000000004
:100DF0000000000000000000000FF800000003C029
:100E0000007E000001E0007F0FF800000003C0003A
:100E1000FE000001E000FFEFF800000003C000FE4C
:100E2000000001E000FFFFF800000003C000F00038
:100E300000000F007FFE7FC0000003C000F0000034
:100E4000000F003FFE7FF83FF1FBCFFCFEF3BC3DFF
:100E5000EFE01FFE7FFF7FFBFFDFFEFEFFBC3DEFED
:100E6000E01FC6FFFF7FFBFFDFFEFEFFBC3DEFE0A4
:100E70000FE3C7FE787BC3DE1EF0FFBC3DEF00072B
:100E8000FF87FC787BC3DE1EF0F83C3DEF0001FFDE
:100E9000FFF0007BC3C01EF0F03C3DEF0001F37F8C
:100EA000E03FFBC3CFFEF0F03C3DEF0003E33F80AB
:100EB0007FFBC3DFFEF0F03C3DEF0007E73C00782E
:100EC0007BC3DE1EF0F03C3DEF0007FFBE00787BE9
:100ED000C3DE1EF0F03C3DEF0007FFFE00787BC351
:100EE000DE1EF0F03C3DEF000FFFFE007FFBFFDF5A
:100EF000FEF0F03FFDEFE00FFFFF007FFBFFDFFEA6
:100F0000F0F03FFDEFE00FF9FF003E79F9CF9EF0E2
:100F1000F01F3DE7E01FF1FF0000000000000000AF
:100F2000000000001F80FF007FFFFFFFFFFFFFFFAB
:100F3000FFFFE01C007F007FFFFFFFFEB46D888D88
:100F400018E000001F007FFFFFFFFE95AD7DB57725
:100F5000E000000F007FFFFFFFFEA5AD9D8D19E0B3
:100F6000000006007FFFFFFFFEB5ADEDB57EE0009F
:100F700000000000018000000000000000000003ED
:100F80008000000000000000000007C0000000001A
:100F9000000000000007C00000000000000000008A
:100FA0000FC00000000000000000001FE000000073
:100FB0000000000000001FE0000000000000000032
:100FC000003FE00000000000000000003FF00000D3
:100FD000000000000000007FF000000000000000A2
:100FE0001FF87FF0000000000000003FFE7FF000CF
:100FF0000000000000003FFF7FF000000000000044
:10100000001FFFFBE0000000000000000FFFF9FFE1
:10101000C00000000000000FFFF9FFF80000000012
:10102000000007FFF1FFFF00000000000003FC7359
:10103000FFFF80000000000001FE3FFFFF80000076
:1010400000000000FF1E0FFF000000000000007FF6
:10105000FE1FFC000000000000003FFFFFF8000042
:1010600000000000000FDFFFE000000000000000B3
:101070001F19FFC0000000000000003F3CFF0000FF
:101080000000000000007E7CF8000000000000006E
:10109000007FFE7C0000000000000000FFFFFC005D
:1010A00000000000000000FFFFFE00000000000044
:1010B0000000FFFFFE0000000000000001FFEFFE47
:1010C0000000000000000001FFCFFE000000000053
:1010D000000003FF07FE0000000000000003FC0703
:1010E000FE0000000000000003F003FE000000000E
:1010F000000000018000FE00000000000000000071
:10110000007E000000000000000000003E00000023
:10111000000000000000000C00000000000007803C
:1011200000FC000003C0000000078001FC00000379
:10113000C0000000078001FC000003C000000007A1
:101140008001E00000001E000000078001E00000B8
:10115000001E007FE3F79FF9FDE7787BDFC0FFF714
:10116000FFBFFDFDFF787BDFC0FFF7FFBFFDFDFF89
:10117000787BDFC0F0F787BC3DE1FF787BDE00F0D5
:10118000F787BC3DE1F0787BDE0000F787803DE12A
:10119000E0787BDE007FF7879FFDE1E0787BDE0073
:1011A000FFF787BFFDE1E0787BDE00F0F787BC3D0D
:1011B000E1E0787BDE00F0F787BC3DE1E0787BDEA4
:1011C00000F0F787BC3DE1E0787BDE00FFF7FFBF72
:1011D000FDE1E07FFBDFC0FFF7FFBFFDE1E07FFB4C
:1011E000DFC07CF3F39F3DE1E03E7BCFC000000019
:1011F0000000000000000000FFFFFFFFFFFFFFFFF7
:10120000FFFFC0FFFFFFFFFD68DB111A31C0FFFFCA
:10121000FFFFFD2B5AFB6AEFC0FFFFFFFFFD4B5B9B
:101220003B1A33C0FFFFFFFFFD6B5BDB6AFDC000B5
:10123000000009000302000004050800000000008F
:10124000000000000000010204081020408001029C
:101250000408102001020408102040804004040407
:10126000040404040402020202020203030303034F
:101270000302020300000000250028002B000000EC
:101280000000240027002A00710BBD0C791FB20B4F
:1012900011241FBECFEFD8E0DEBFCDBF12E0A0E02B
:1012A000B1E0E8E2F6E402C005900D92AE32B1077B
:1012B000D9F724E0AEE2B2E001C01D92A130B2073E
:1012C000E1F719E0C7E4D9E004C02197FE010E94CC
:1012D000CC20C434D107C9F70E949A200C9407236C
:1012E0000C940000CF92DF92EF92FF920F931F9326
:1012F00026E040E052EC61E070E080E693E00E947E
:10130000B51E01E021E04CE362E08FE492E00E9430
:10131000E417811101C0FFCF60ED77E080E090E03D
:101320000E94BD1C8FE492E00E94C61761E08FE42A
:1013300092E00E94121581E090E090936202809307
:1013400061029093600280935F02CC24C394D12CFD
:1013500090E4E92EF12C00E810E028E634E045E0C6
:1013600050E070E060E08FE492E00E9478118FE43A
:1013700092E01F910F91FF90EF90DF90CF900C942F
:101380005B1B6F927F928F929F92AF92BF92CF9290
:10139000DF92EF92FF920F931F93CF93DF938C0115
:1013A00062E08FE492E00E94121510925C021092AB
:1013B0005B0210925E0210925D0269E071E08FE4C0
:1013C00092E00E94F01F61E08FE492E00E9412150B
:1013D00080904A0290904B0286E0889D6001899D32
:1013E000D00C1124F12CE12CC4E1D0E084E1A82E32
:1013F000B12CC601825D9D4F3C0180914C029091C1
:101400004D0224E0821691040CF04BC020914A0258
:1014100030914B022815390519F510925C02109293
:101420005B02B0925E02A0925D028816990631F4CA
:101430006EE071E08FE492E00E94F01FB3016E0D48
:101440007F1D8FE492E00E94E21F8FE492E00E94F1
:101450005B1B8FEF881A980A96E0E90EF11CCDCF3E
:10146000A40141505109F701EC0DFD1DE45DFD4F54
:10147000208131812631310550F0649610925C0252
:1014800010925B02D0935E02C0935D02CECF2E5FBE
:101490003F4F2631310518F04817590771F32C9644
:1014A000EDCF9801235C31402930310510F5181635
:1014B0001906FCF4019790934D0280934C028FE43F
:1014C00092E00E94C61764E670E080E090E00E941F
:1014D000BD1C80914C0290914D028330910541F5E5
:1014E00081E090E090934B0280934A0290E080E08C
:1014F00010C098012A5F31402930310528F483302B
:10150000910514F40196D7CF085B124009301105FC
:1015100000F7DF91CF911F910F91FF90EF90DF9037
:10152000CF90BF90AF909F908F907F906F900895D5
:101530000097E1F610924B0210924A02EACF8FE434
:1015400092E00E94C61761E08FE492E00E941215BB
:1015500010925C0210925B0210925E0210925D0289
:1015600061E171E08FE492E00E94F01F10925C0252
:1015700010925B0280E190E090935E0280935D02A6
:101580008091460290914702892B31F46EE071E020
:101590008FE492E00E94F01F65E271E08FE492E038
:1015A0000E94F01F8FE492E00E945B1B0895CF928F
:1015B000DF92EF92FF920F931F93CF93DF938EE012
:1015C0000E94311DEC018536910574F180914E0227
:1015D00081112AC081E080934E028FE492E00E9444
:1015E000C61710925C0210925B0287E190E0909324
:1015F0005E0280935D0262E08FE492E00E94121529
:101600006DE371E08FE492E00E94FC1F8FE492E0B2
:101610000E945B1B64EF71E080E090E00E94BD1CC3
:101620008FE492E00E94C61780914E02882309F44D
:101630004FC08091480290914902009709F5CE0170
:101640000E94C1099093490280934802C05ED24033
:101650002B97F0F510924902109248028FE492E025
:101660000E94C61764E670E080E090E0DF91CF91C1
:101670001F910F91FF90EF90DF90CF900C94BD1CC5
:101680008230910541F4CE010E949F0A9093070198
:1016900080930601DBCF0397C9F68FE492E00E94A6
:1016A000C617CC24C394D12C90E4E92EF12C00E889
:1016B00010E028E630E050E040E070E060E08FE4C9
:1016C00092E00E9478118FE492E00E945B1BBECFF3
:1016D000DF91CF911F910F91FF90EF90DF90CF900E
:1016E00008958F929F92AF92BF92CF92DF92EF9226
:1016F000FF920F9380EA882E86E8982EAA24A3945E
:10170000B12C90E8C92E9AE1D92E96E0E92EF12C61
:101710000FEF2FE832E040E460E88FE492E00E94AF
:101720002C1668E471E08EE292E00E94822063E66B
:1017300071E084E392E00E94822069E771E08AE32D
:1017400092E00E94822069E971E080E492E00F91CA
:10175000FF90EF90DF90CF90BF90AF909F908F90D1
:101760000C94822080E492E00E9413208AE392E0AD
:101770000E94132084E392E00E9413208EE292E004
:101780000E9413208FE492E00C94771690E080E0A2
:1017900008958091C3029091C402891B990B08950A
:1017A0009091C4028091C3022FEF3FEF981748F445
:1017B000E92FF0E0EB53FD4F208130E09F5F9093E5
:1017C000C402C9010895E091C4028091C302E817E0
:1017D00030F4F0E0EB53FD4F808190E008958FEFFF
:1017E0009FEF08950895CF93DF93EC01E0919B0262
:1017F000F0919C023097F1F09091C4028091C30265
:101800009817C0F090E0292F30E02617370754F4DE
:10181000DE01A20FB31F4C912B533D4FD9014C93C6
:101820009F5FF1CF1092C4026093C302CB01DF919E
:10183000CF910994DF91CF910895E0919D02F091AD
:101840009E02309729F01092A1021092A0020994F2
:101850000895CF93DF931F92CDB7DEB769832091B0
:101860009F022223F9F02091A002203258F021E0BB
:1018700030E0FC013383228390E080E00F90DF9121
:10188000CF9108958091A102E82FF0E0EE55FD4F31
:10189000998190838F5F8093A1028093A00281E061
:1018A00090E0ECCF61E0CE0101960E94560DF7CF9B
:1018B000CF92DF92EF92FF920F931F93CF93DF931C
:1018C0007C01CB018A0120919F02222389F0EB0148
:1018D0006B01C40ED51ECC15DD0569F06991D701E9
:1018E000ED91FC910190F081E02DC7010995F3CFB6
:1018F000642F0E94560DC801DF91CF911F910F9167
:10190000FF90EF90DF90CF9008951092C402109254
:10191000C3021092A1021092A0020E94CE0C8DE18F
:101920009CE00E94820D83EF9BE00C947D0DCB0127
:10193000BA010C94EC0C81E080939F026093C20288
:101940001092A1021092A00208950C949B0C0F9388
:10195000062F21E04091A00262EA72E08091C2026B
:101960000E94FF0C1092A1021092A00210929F02FE
:101970000F91089561E00C94A70CEFE8F2E0138258
:10198000128288EE93E0A0E0B0E084839583A68382
:10199000B78383EB91E09183808308951092520383
:1019A00081E08093500310924F0361E082E10E9436
:1019B000B41D61E083E10E94B41DE9EBF0E0808199
:1019C0008E7F808380818D7F808388E48093B800C0
:1019D00085E48093BC0008959B01AC0160E074E253
:1019E00084EF90E00E94AA20205131094109510959
:1019F00056954795379527952093B80008950F93EE
:101A0000413208F04BC0909152039111FCCF92E00B
:101A100090935203009350039FEF9093E50210922E
:101A20002A0340932903362FABE2B3E0FB019E2F3C
:101A3000931B941770F11092510390915103880FEA
:101A4000892B8093510380914F03813029F51092A7
:101A50004F03809151038093BB008091BC0083FDB4
:101A6000F8CF85EC8093BC00222321F080915203B3
:101A70008230D1F38091E5028F3F91F08091E502B1
:101A8000803281F08091E502803371F084E00F9123
:101A9000089591919D93CBCF85EEE4CF81E0F7CF70
:101AA00080E0F5CF82E0F3CF83E0F1CF2091070310
:101AB000260F3327331F21323105ECF420915203D6
:101AC000FC0190E080E0243069F082E00895A0916C
:101AD00007032191AC01475F5C4FA40FB52FB11DE7
:101AE0002C930196861798F380910703680F6093F3
:101AF000070380E0089581E0089590934C0380935C
:101B00004B03089590934E0380934D03089585ED04
:101B10008093BC008091BC0084FDFCCF10925203E6
:101B2000089585EC8093BC001092520308951F9293
:101B30000F920FB60F9211242F933F934F935F9301
:101B40006F937F938F939F93AF93BF93EF93FF9385
:101B50008091B900887F803609F44CC008F03FC0FE
:101B6000883209F4A8C018F5803109F49CC0B8F493
:101B7000882309F4F9C0883009F495C0FF91EF91EA
:101B8000BF91AF919F918F917F916F915F914F9195
:101B90003F912F910F900FBE0F901F901895883195
:101BA00009F489C0803251F78093E50215C0803472
:101BB00009F49EC048F48033B9F38833F9F6809372
:101BC000E5020E94910DDACF803509F485C0883591
:101BD00009F496C0883491F60E94870DCFCF8839DA
:101BE00009F48CC038F5883729F050F4883611F0A4
:101BF000803721F683E0809352031092E60257C0AB
:101C0000883809F47BC0803919F0803809F0B6CFE4
:101C10008091E602803208F071C0E091E60281E036
:101C20008E0F8093E6028091BB00F0E0E951FD4FFA
:101C300080833DC0803B39F0E0F4803A09F479C0FC
:101C4000883A09F09BCF84E08093520310920803F6
:101C500010920703E0914D03F0914E030995809196
:101C6000070381110FC081E08093070310920903DD
:101C700009C0803C09F476C0883C09F473C0883BF5
:101C800009F07CCFE091080381E08E0F8093080378
:101C9000F0E0E75FFC4F80818093BB0090910803E8
:101CA0008091070329C0809151038093BB0085EC8C
:101CB0008093BC0063CF90912A03809129039817E9
:101CC00058F5E0912A0381E08E0F80932A03F0E01B
:101CD000E55DFC4F8081E9CFE0912A0381E08E0F22
:101CE00080932A038091BB00F0E0E55DFC4F808388
:101CF00090912A03809129039817C8F285E8D8CFDC
:101D0000E0912A0381E08E0F80932A038091BB002B
:101D1000F0E0E55DFC4F80838091500381115CCF42
:101D200081E080934F0384EA8093BC0010925203B9
:101D300025CF0E94910D8091E602803230F4E0912F
:101D4000E602F0E0E951FD4F10826091E60270E09A
:101D5000E0914B03F0914C0387EE92E009951092CD
:101D6000E6020CCF85ECE0CF1092E50235CF089566
:101D70002F923F924F925F926F927F928F929F929B
:101D8000AF92BF92CF92DF92EF92FF920F931F9389
:101D9000CF93DF9300D000D000D0CDB7DEB73C01A9
:101DA0006A013E832D83FC82EB825801A41AB50A96
:101DB000B7FE03C0B194A194B1088D809E80861AAD
:101DC000970A97FE03C09194819491088A149B040A
:101DD0005CF0902F812F0D811E819D838E839C2D21
:101DE0008D2D6B01692F782F0C151D055CF09D81E1
:101DF0008E817E836D83692F782F902F812F8601AE
:101E0000C92ED82E1601201A310A2B012D813E81B0
:101E1000421A530A57FE03C051944194510871016C
:101E200037FE03C03FEFE31AF30AF594E7948D8180
:101E30009E81861797075CF5A1E0B0E0BA83A9837D
:101E4000C016D1064CF1D301ED91FC910484F585C7
:101E5000E02D2B813C81A8016D817E818A149B0439
:101E60001CF04D815E81B801C3010995E418F508A5
:101E7000F7FE0AC02D813E8189819A81280F391F82
:101E80003E832D83E20CF31C0F5F1F4FD9CF2FEF42
:101E90003FEF3A832983D4CF26960FB6F894DEBF5E
:101EA0000FBECDBFDF91CF911F910F91FF90EF90AB
:101EB000DF90CF90BF90AF909F908F907F906F906A
:101EC0005F904F903F902F9008950895DC01ED9121
:101ED000FC910084F185E02D09940F931F93DC01A0
:101EE000ED91FC91048CF58DE02D09951F910F91DA
:101EF00008950F931F93DC01ED91FC91068CF78DF3
:101F0000E02D09951F910F910895EF92FF920F9385
:101F10001F93DC01ED91FC9100A0F1A1E02D09954A
:101F20001F910F91FF90EF9008958F929F92AF9223
:101F3000BF92CF92DF92EF92FF920F931F93CF93B6
:101F4000DF93EC015B014A0169017801E881F981C5
:101F50000284F385E02D0995C80CD91C8601015037
:101F60001109E881F9810488F589E02D9501A40122
:101F7000B501CE010995E881F9810688F789E02D40
:101F8000CE01DF91CF911F910F91FF90EF90DF90E5
:101F9000CF90BF90AF909F908F9009948F929F9217
:101FA000AF92BF92CF92DF92EF92FF920F931F9367
:101FB000CF93DF93EC015B014A016901E881F9816C
:101FC0000284F385E02D099595012C0D3D1D2150CE
:101FD0003109E881F9810488F589E02D78018401CF
:101FE000A401B501CE010995E881F9810688F78938
:101FF000E02DCE01DF91CF911F910F91FF90EF90D7
:10200000DF90CF90BF90AF909F908F9009944F92A8
:102010005F926F927F928F929F92AF92BF92CF9278
:10202000DF92EF92FF920F931F93CF93DF936C0198
:102030002B015A0139014801DC01ED91FC91028428
:10204000F385E02D0995E201640C751CD601ED9134
:10205000FC91C615D7055CF40088F189E02D870155
:102060009401A501BE01C60109952196EFCF06880E
:10207000F789E02DC601DF91CF911F910F91FF905D
:10208000EF90DF90CF90BF90AF909F908F907F9018
:102090006F905F904F900994EF92FF920F931F9370
:1020A000DC011A960D911C911B9718962D913C916D
:1020B0001997ED91FC9100A0F1A1E02D7B0150E07A
:1020C00040E070E060E009951F910F91FF90EF9064
:1020D00008956F927F928F929F92AF92BF92CF920C
:1020E000DF92EF92FF920F931F93CF93DF93EC0158
:1020F0006B015A0139014801E881F9810284F385B5
:10210000E02D0995E881F9810288F389E02D8701A6
:102110009301A501B601CE010995A501480D591DF0
:1021200041505109E881F9810288F389E02D93013A
:10213000B601CE010995E881F9810088F189E02D89
:102140009401A501B601CE010995C60CD71CB601B4
:1021500061507109E881F9810088F189E02D9401CD
:10216000A501CE010995E881F9810688F789E02D5E
:10217000CE01DF91CF911F910F91FF90EF90DF90F3
:10218000CF90BF90AF909F908F907F906F90099469
:1021900008956F927F928F929F92AF92BF92CF924B
:1021A000DF92EF92FF920F931F93CF93DF935C0127
:1021B000EB016A01490138018701DC01ED91FC91D5
:1021C0006217730719F5641675062CF0962D872D86
:1021D0003A01C92ED82E9601261937092F5F3F4F95
:1021E000048CF58DE02DA301BE01C5010995DF9199
:1021F000CF911F910F91FF90EF90DF90CF90BF9004
:10220000AF909F908F907F906F90089546155705DF
:1022100091F42617370724F0892D4B01C22FD82FB0
:102220009E01281939092F5F3F4F068CF78DE02D4D
:10223000A601B401DACF0284F385E02D0995D5011A
:10224000ED91FC910488F589E02D83019401A601AC
:10225000BE01C5010995D501ED91FC910688F7896C
:10226000E02DC501DF91CF911F910F91FF90EF906D
:10227000DF90CF90BF90AF909F908F907F906F90A6
:102280000994FC016370668B848195812681378176
:10229000613039F0633029F0918780873387228756
:1022A000089531872087938782870895FC011382E0
:1022B000128285EC91E091838083758364835783D8
:1022C00046837187608753874287168A15861486EE
:1022D0001786168681E0858B848B2FEF3FEF338B3B
:1022E000228B318B208B878B108E128E118E08954E
:1022F0003F924F925F926F927F928F929F92AF9296
:10230000BF92CF92DF92EF92FF920F931F93CF93E2
:10231000DF93CDB7DEB72A970FB6F894DEBF0FBEB6
:10232000CDBF9A8789877E836D8358874F83290124
:102330003701DC01ED91FC910284F385E02D0995D4
:10234000C801079697FD07969C0193E03595279560
:102350009A95E1F73A832983912C812CB12CA12CF9
:10236000312C8F8198858A0D9B1D9C838B83A614AD
:10237000B704ACF5F12CE12CE016F10644F5C701E9
:1023800087709927330C892B59F4F70183E0F59571
:10239000E7958A95E1F7E80DF91DE40DF51D3490F8
:1023A00037FE11C0A985BA85ED91FC91119704847F
:1023B000F585E02D96014B815C816D817E816E0DEE
:1023C0007F1DCD010995BFEFEB1AFB0AD5CF2FEF8B
:1023D000A21AB20A89819A81880E991EC2CFA98554
:1023E000BA85ED91FC9111970688F789E02DCD0112
:1023F0002A960FB6F894DEBF0FBECDBFDF91CF9106
:102400001F910F91FF90EF90DF90CF90BF90AF9012
:102410009F908F907F906F905F904F903F90099426
:102420002F923F924F925F926F927F928F929F92E4
:10243000AF92BF92CF92DF92EF92FF920F931F93D2
:10244000CF93DF93CDB7DEB76A970FB6F894DEBFB0
:102450000FBECDBF9A8F898F7A8369834A01D22EAE
:1024600018870F833701BC2CDC0159962D913C91C4
:102470005A972115310509F015C118968D919C9137
:102480001997681779070CF0D7C11A968D919C910E
:10249000481759070CF0D0C14C2C512CB6E0CB9EFC
:1024A000600D711D11247C876B87161617060CF0C2
:1024B000C3C1EA2DF0E0FA87E98793E0EE0FFF1F32
:1024C0009A95E1F7F88BEF87CF01840F951F1816C7
:1024D00019060CF0B1C1A98DBA8D58968C91811155
:1024E00004C0BFEABD1508F4D394A98DBA8DED914F
:1024F000FC9111970284F385E02DCD010995B5E09B
:10250000DB9EC0011124E981FA81FC83EB83312C2D
:10251000212C9C012859374F388F2F8B4A2D50E0A2
:102520005E8B4D8BEF89F88DE20DF31D44919E82F9
:102530008D82D12CC12C69817A81620D731D7A8BB9
:10254000698B842F90E09C8B8B8BE98DFA8DA08119
:10255000B18140FF82C0F1E0BF126FC0AF126DC009
:102560001C96ED91FC912F813885A4014C0D5D1DC9
:1025700069897A89898D9A8D0995EB89FC89F59508
:10258000E7954E2F5FEFC51AD50A6D817E818D8943
:102590009E89680F791F7E836D8398E0C916D104E8
:1025A00081F6AFEF2A1A3A0AEB81FC81E40DF51DA2
:1025B000FC83EB83F5E02F16310409F0B3CF2F81B4
:1025C000388526153705B9F0A98DBA8DED91FC91A6
:1025D000B1E0BB1257C0AB1255C069817A816B5F05
:1025E0007F4F0088F189E02D830128E030E0A401CD
:1025F000898D9A8D0995A98DBA8DED91FC911197D0
:102600000688F789E02DCD016A960FB6F894DEBFF3
:102610000FBECDBFDF91CF911F910F91FF90EF9033
:10262000DF90CF90BF90AF909F908F907F906F90F2
:102630005F904F903F902F9009941E96ED91FC91E2
:10264000EF80F88409851A8592014D815E816B8146
:102650007C81898D9A8D099590CF2F81388526159B
:10266000370509F48ACF31E0B31207C0A31205C0C1
:102670001C96ED91FC91930178CF1E96ED91FC9103
:102680007301E0CF6B857C85641975090684F78535
:10269000E02D73010F8518899201A401898D9A8D0F
:1026A0000995A9CFF90134969491329745915491A7
:1026B000D91AB7E0DB9E400D511D1124F901259177
:1026C00034913C8B2B8BFA0125903490FA01329691
:1026D000749031963491398B32966490319644904F
:1026E00041E04C1518F04A1508F07FC0662D062C05
:1026F000000C770B7C836B83842D042C000C990BCE
:102700009E838D83A98DBA8DED91FC9111970284E2
:10271000F385E02DCD010995512CD12CC12CEA2D4A
:10272000F0E0FA87E9872B2D30E03C872B87A40166
:10273000440D511D47FC5A95588F4F8B69817A8102
:10274000660D711D67FC7A957E876D877989C7163E
:1027500008F051CF2C2D30E04D815E81420F531F88
:10276000A985BA854A9FC0014B9F900D5A9F900D35
:102770001124FC01E80DF91DF88BEF87852D612CE4
:102780004F89588D420F531F5E8B4D8B671408F095
:1027900050C044244394480E877041F4C10101960F
:1027A000EB89FC89E20DF31DD4901C01D7FE19C002
:1027B000A98DBA8DED91FC91662D70E0B1E0BB1250
:1027C00019C0AB1217C02D853E85620F731F04849C
:1027D000F585E02D2F8138854D895E89898D9A8D0B
:1027E0000995DD0C6394842DD1CF1E821D821C823D
:1027F0001B8288CF4B815C81640F751FAB85BC85C4
:102800006A9FC0016B9F900D7A9F900D1124698182
:102810007A81680F791F0684F785E02DEF80F884B0
:1028200009851A859D014F855889898D9A8D09954D
:10283000D8CF570CC3948ACF6A960FB6F894DEBFF0
:102840000FBECDBFDF91CF911F910F91FF90EF9001
:10285000DF90CF90BF90AF909F908F907F906F90C0
:102860005F904F903F902F9008958F929F92AF92DC
:10287000CF92EF92FF920F931F93CF93DF93EC01D0
:10288000262F898D9A8D009709F051C06A30D1F4B6
:102890001D861C868D8948E0849F900111248E85B9
:1028A0009F85820F931F9F878E8781E090E0DF9145
:1028B000CF911F910F91FF90EF90CF90AF909F908D
:1028C0008F9008956D3089F3CC88AD888F898823E7
:1028D000C1F08C859D8536E0C39E800D911D11242D
:1028E000488559854817590764F44E855F851D86CC
:1028F0001C8638E0A39EC0011124840F951F9F877A
:102900008E87EA88FB88088919894E855F856C85E2
:102910007D85CE010E9410122C898C859D8546E014
:10292000249F800D911D11249D878C87BECF6A3016
:1029300069F41D861C86FC013896E4912D898E85EC
:102940009F85E29F800D911D1124ADCF6D3009F45C
:10295000ACCFFC0134963491631708F4A6CF3296BD
:10296000E491E61708F4A1CFFC013296859094908B
:10297000462F431B342F47E0349F800C911C1124B9
:10298000F401329634913196E4913323A9F1EE2388
:1029900099F1CC88F4013596E491AD884F894423B0
:1029A00001F10E2E000CFF0BE30FF11DCE9EA001D6
:1029B000CF9E500D11246C857D85460F571F68856D
:1029C0007985641775076CF44E855F851D861C86B6
:1029D000FC013896E491AE9E400D511D11245F8795
:1029E0004E87EA88FB88088919894E855F856C8542
:1029F0007D85CE010E941012F4013496E4912C8959
:102A00008C859D85E29F800D911D11248DCF6111D4
:102A100001C061E0FC01648B411101C041E0FC0197
:102A2000458B0895462F0C940715809155038823F4
:102A300061F09FB7F89420915503809153032130A2
:102A400019F48DBB9FBF08958FBF0895CF93CFB763
:102A5000F89480915603811127C0E7E6F2E1849152
:102A6000E0E5F2E19491E82FF0E0EE0FFF1FE2586D
:102A7000FD4EA591B491EC91E92321F461E08AE047
:102A80000E94B41D61E08AE00E94781D8CB58061CF
:102A90008CBD8CB580648CBD61E08DE00E94781D9A
:102AA00061E08BE00E94781D809156038F5F8093D8
:102AB0005603CFBFCF910895FC0177FD64C0808598
:102AC0009185681779070CF05EC057FD5CC0828560
:102AD0009385481759070CF056C086898230B1F0AB
:102AE000833029F1813041F484819581841B950BD9
:102AF000AB01BC01615071092130310509F108F4C5
:102B000043C02230310509F463C008958481958162
:102B1000DC01A61BB70BBD0161507109868197814D
:102B2000DC01A41BB50BAD0141505109E5CF8681F5
:102B30009781861B970BBA01AC0141505109DCCF3C
:102B4000CA0157FD0796A3E095958795AA95E1F7E9
:102B5000A481B5818A9F90018B9F300D9A9F300D83
:102B60001124620F731F078CF0A1E02DE60FF71FF1
:102B70004770552721E030E001C0220F4A95EAF75F
:102B80008081822B80830895CA0157FD079633E028
:102B9000959587953A95E1F7A481B5818A9F900133
:102BA0008B9F300D9A9F300D1124620F731F078C7D
:102BB000F0A1E02DE60FF71F4770552781E090E068
:102BC00001C0880F4A95EAF7809590818923DACF72
:102BD000CA0157FD079623E0959587952A95E1F759
:102BE000A481B5818A9F90018B9F300D9A9F300DF3
:102BF0001124620F731F078CF0A1E02DE60FF71F61
:102C00004770552721E030E001C0220F4A95EAF7CE
:102C100080818227B7CF20915503222381F03FB7CF
:102C2000F89420915503213069F42DB32093530378
:102C30004DB320915403209524232DBB3FBF8CBD61
:102C40009DBD089530935303FACF8EBD00000DB49F
:102C500007FEFDCF8EB508954F925F926F927F92DF
:102C60008F929F92AF92BF92CF92DF92EF92FF929C
:102C70000F93CF93DF93CDB7DEB73C01290150E02E
:102C800070E00E94561181EF91E0F30191838083FF
:102C9000148E138E4114510421F48FE8482E82E0E3
:102CA000582EF301568E458E10A2178E8FEF84A3F7
:102CB00085A386A387A300A7C5AAD6AAE7AAF0AED4
:102CC00081AE92AEA3AEB4AE80E586AF17AEDF9113
:102CD000CF910F91FF90EF90DF90CF90BF90AF908A
:102CE0009F908F907F906F905F904F90089521EF0D
:102CF00031E0FC0131832083878D90A1009711F092
:102D00000C946E2108951F93CF93DF93EC018D8D6A
:102D10009E8D009711F1162F69A1062E000C770BDE
:102D20000E94A50C8D8D9E8DDC01ED91FC91019092
:102D3000F081E02D60E009958D8D9E8DDC01ED9197
:102D4000FC910190F081E02D612F09958D8D9E8D74
:102D5000DF91CF911F910C94BA0CADA5BEA59C91AB
:102D60008BA9809589238C938B8D9C8D892B31F039
:102D7000862FDF91CF911F910C94251628E030E02B
:102D800080E8A9A5BAA599A9462F4823C1F04C917E
:102D9000942B9C93ABA5BCA59C914AA9942B9C9386
:102DA000ABA5BCA54C919AA9909594239C9386952C
:102DB0002150310931F7DF91CF911F9108954C9146
:102DC00090959423E6CF1F93CF93DF93EC01162FBA
:102DD0008D8D9E8D0097C9F04DA95EA96FA978AD24
:102DE0000E94970C66EA111167EACE010E948316D1
:102DF0008D8D9E8D0097C9F049AD5AAD6BAD7CAD00
:102E0000DF91CF911F910C94970C8B8D9C8D892B0A
:102E100021F08EAD9FAD0E940B16EFA5F8A9908111
:102E20008CA9809589238083DDCFEFA5F8A98081C7
:102E30009CA9892B80838B8D9C8D892B29F0DF9118
:102E4000CF911F910C941515DF91CF911F9108958B
:102E5000CF92DF92EF92FF921F93CF93DF93EC011B
:102E60006B01142F8D8D9E8D009709F44FC069A1C1
:102E7000062E000C770B0E94A50C8D8D9E8DDC011B
:102E8000ED91FC910190F081E02D60E009957601D3
:102E9000CC24C394D12C11508D8D9E8D1F3F69F190
:102EA000B0E2CB16D104B8F00E94BA0C69A1062E8C
:102EB000000C770B8D8D9E8D0E94A50C8D8D9E8DA7
:102EC000DC01ED91FC910190F081E02D60E009952D
:102ED000CC24C394D12C8D8D9E8DF7016491DC019F
:102EE000ED91FC910190F081E02D0995BFEFCB1A97
:102EF000DB0AEFEFEE1AFE0ACECFDF91CF911F91E2
:102F0000FF90EF90DF90CF900C94BA0CEDA5FEA54A
:102F100090818BA98095892380837B01115070F16A
:102F2000F70184912B8D3C8D232B31F00E942516C7
:102F3000FFEFEF1AFF0AF2CF28E030E040E8E9A502
:102F4000FAA599A9582F5423A9F05081952B908365
:102F5000EBA5FCA590815AA9952B9083EBA5FCA528
:102F600050819AA9909595239083469521503109D7
:102F700031F7DECF508190959523E9CFDF91CF9146
:102F80001F91FF90EF90DF90CF900895FC01868114
:102F900097819C01295F3F4F37FF02C0295F3F4F58
:102FA00083E0359527958A95E1F784819581289F5F
:102FB000A001299F500D389F500D112470E060E052
:102FC000878D90A10C94C2228F929F92AF92BF9254
:102FD000CF92DF92EF92FF920F931F93CF93DF93E5
:102FE000EC01862EB42EA22E902E8F8D98A1892BC7
:102FF00039F1CE010E94C6178E819F816C817D813F
:10300000813291050CF046C0AC014052510957FF86
:1030100002C04F5F5F4F559547956357710977FF22
:1030200002C06F5F7F4F75956795CC24C394D12CF8
:10303000A0E2EA2EF12C03E710E02FE83DE045C0C6
:103040002E813F81C901079697FD079623E095954C
:1030500087952A95E1F72C813D81AC01429FC00103
:10306000439F900D529F900D11240E94D22098A34F
:103070008F8F892B09F0BDCF80E0DF91CF911F9119
:103080000F91FF90EF90DF90CF90BF90AF909F9007
:103090008F900895AC014054510957FF02C04F5F13
:1030A0005F4F559547956255710977FF02C06F5F75
:1030B0007F4F75956795CC24C394D12C80E4E82E7E
:1030C000F12C02E510E02FE63FE0CE010E947811DE
:1030D0008AA22D8D3E8D2115310509F4A2C09B2DAC
:1030E000B11006C08E819F81809709F098C09CE343
:1030F00099A3992009F43FC1C9010E94850CAA2017
:10310000F1F088A587FD1BC061E00E94781D61E099
:1031100088A50E94B41D61E070E080E090E00E940C
:10312000BD1C60E088A50E94B41D6AE070E080E0EC
:1031300090E00E94BD1C61E088A50E94B41D2D8D09
:103140003E8D2115310509F4E6C04DA95EA96FA990
:1031500078ADC9010E94970C44E06BE87DE0CE0198
:103160000E9428176E816150CE010E94831644E0B0
:1031700067E87DE0CE010E9428178AA160E18130D6
:1031800009F064E1CE010E94831644E063E87DE02B
:10319000CE010E9428178FE88DAF8C819D818038E9
:1031A000910509F0CAC08E819F818034910509F094
:1031B000D0C08AA1813009F0BEC08FE98DAF12E185
:1031C0006AEDCE010E948316612FCE010E94831604
:1031D00061E8CE010E9483166DADCE010E94831678
:1031E00069EDCE010E9483168AA162E2813009F066
:1031F00061EFCE010E94831646E06DE77DE0CE01CF
:103200000E9428178D8D9E8D009709F4A6C049ADA8
:103210005AAD6BAD7CAD0E94970C81E02ECF9DE343
:1032200067CF61E08EA10E94781D61E08FA10E94AE
:10323000781D8EA1082E000C990BFC01E35AFD4E5F
:10324000E491F0E0EE0FFF1FEC58FD4E2591349114
:103250003EA72DA7FC01EA5BFD4EE491EBAB8FA1ED
:10326000082E000C990BFC01E35AFD4EE491F0E0AE
:10327000EE0FFF1FEC58FD4EA591B491B8ABAFA770
:10328000FC01EA5BFD4EE491ECAB8C91E82BEC93F6
:103290008B8D9C8D892B31F0992009F430CF0E94C1
:1032A00026152DCF61E08CA10E94781D61E08DA1D3
:1032B0000E94781D8CA1082E000C990BFC01E35A8A
:1032C000FD4EE491F0E0EE0FFF1FEC58FD4E25910E
:1032D00034913AA729A7FC01EA5BFD4EE491E9ABE2
:1032E0008DA1082E000C990BFC01E35AFD4EE491D0
:1032F000F0E0EE0FFF1FEC58FD4EA591B491BCA776
:10330000ABA7FC01EA5BFD4EE491EAAB8C91E09542
:10331000E823EC93F4CE8B8D9C8D892B21F08EAD20
:103320009FAD0E940B16EFA5F8A990818CA98095FE
:103330008923808311CF8FEC41CF8036910549F4EA
:103340008E819F81409729F48AA1813021F480E108
:103350008DAF12E035CF8FEAFBCFEFA5F8A98081C2
:103360009CA9892B80838B8D9C8D892B09F455CF4B
:103370000E94151552CFA110C4CEE7CE0F931F9314
:10338000CF93DF93DC0157FD46C016968D919C913B
:103390001797481759070CF03EC077FF04C0260F57
:1033A000371F70E060E01496CD91DC911597CB014A
:1033B000820F931FC817D9071CF49E01261B370BD9
:1033C0001216130644F5FA0157FD379683E0F5957A
:1033D000E7958A95E1F7EC9FC001ED9F900DFC9F6A
:1033E000900D1124680F791F5F96ED91FC91E60F07
:1033F000F71F4770552781E090E001C0880F4A957C
:10340000EAF7482F0130110559F0A8F02E0F3F1FA1
:1034100002301105E1F0DF91CF911F910F910895D6
:103420002E0F3F1FE217F307B1F38191DF011197D0
:10343000842B8C93F7CF80952E0F3F1FE217F30755
:1034400051F39191DF01119798239C93F7CFE217E5
:10345000F30709F38191DF01119784278C93F7CF4C
:10346000EF92FF920F931F93CF93DF93EC0177FDC1
:1034700076C0EC80FD806E157F050CF070C057FFA4
:1034800004C0240F351F50E040E08E819F81FA0177
:10349000E20FF31F8E179F071CF49C01241B350BB2
:1034A000121613060CF05BC0922F842F869586951A
:1034B00086958E9DD0018F9DB00D11246A0F7B1FC4
:1034C000AF8DB8A1A60FB71F477049F188E0841BE4
:1034D000482F682F70E0FB01EB58F24FE49128175A
:1034E00008F063C0621B71092FEF30E002C0359510
:1034F00027956A95E2F7E2230130110539F0B0F122
:103500000230110561F58C91E82702C08C91E82BFF
:10351000EC93941720F12C813D81A20FB31FE92F6A
:10352000E41BE83078F00230110521F58E2F9C91D4
:1035300090959C932C813D81A20FB31F88508830B9
:10354000B0F7E770EE2359F0F0E0E359F24FE49161
:1035500001301105F9F010F10230110519F1DF9178
:10356000CF911F910F91FF90EF900895E0958C916E
:10357000E823CECF81E00115110509F480E08195A3
:103580009E2F8C932C813D81A20FB31F98509830B1
:10359000C0F7D7CF8C91E82BEC93E1CFE0958C91DD
:1035A000E823FACF8C91E827F7CF0130110509F411
:1035B000ADCFE0F20230110509F4A5CFAE0DBF1D6D
:1035C000AECF0F931F93FA01DC0156964C9156979C
:1035D000423089F0433039F14130F9F414964D917D
:1035E0005C91DA01AE1BBF0BFD013197AB01BF014E
:1035F0000E94301A15C014964D915C91DA01A61BF9
:10360000B70BBD01DC0116964D915C91DA01AE1B42
:10361000BF0BFD013197621B730BAF010E94BE19F6
:103620001F910F91089516964D915C91DA01A61B9A
:10363000B70BBD01621B730BD9CF0F931F93FA0118
:10364000DC0156964C915697423091F0433049F147
:10365000413009F514964D915C91DA01AE1BBF0B18
:10366000FD01E21BF30BAB01BF010E94BE1916C0A6
:1036700014964D915C91DA01A61BB70BBD01615008
:103680007109DC0116964D915C91DA01AE1BBF0BFE
:10369000FD01E21BF30BAF010E94301A1F910F9145
:1036A000089516964D915C91DA01A61BB70BBD01EA
:1036B00061507109D8CFCF92DF92EF92FF920F93B2
:1036C0001F93CF93DF93EC018D8D9E8D009709F4AE
:1036D0006EC04DA95EA96FA978AD0E94970C45E018
:1036E00068E67DE0CE010E9428176C816150CE0112
:1036F0000E9483162E813F81C901079697FD079688
:1037000023E0959587952A95E1F72C813D81829F4D
:103710007001839FF00C929FF00C11240F8D18A163
:103720008D8D9E8DE00EF11E009709F465C069A194
:10373000062E000C770B0E94A50C8D8D9E8DDC0152
:10374000ED91FC910190F081E02D60E40995680114
:1037500001E010E08D8D9E8DEC14FD04C1F100326E
:103760001105B0F00E94BA0C69A1062E000C770B6F
:103770008D8D9E8D0E94A50C8D8D9E8DDC01ED9111
:10378000FC910190F081E02D60E4099501E010E0EA
:103790008D8D9E8DF60161916F01DC01ED91FC91A3
:1037A0000190F081E02D09950F5F1F4FD3CF8B8DD6
:1037B0009C8D892B21F08EAD9FAD0E940B16EFA53D
:1037C000F8A990818CA980958923808388CF0E9455
:1037D000BA0C8D8D9E8D009709F443C049AD5AAD4A
:1037E0006BAD7CADDF91CF911F910F91FF90EF906A
:1037F000DF90CF900C94970CEDA5FEA580819BA93E
:10380000892B8083E016F10621F3F80181918F0165
:103810002B8D3C8D232B19F00E942516F3CF28E029
:1038200030E040E8E9A5FAA599A9582F5423A9F05A
:103830005081952B9083EBA5FCA590815AA9952BDF
:103840009083EBA5FCA550819AA990959523908330
:1038500046952150310931F7D5CF50819095952368
:10386000E9CFEFA5F8A980819CA9892B80838B8D56
:103870009C8D892B51F0DF91CF911F910F91FF907B
:10388000EF90DF90CF900C941515DF91CF911F91A1
:103890000F91FF90EF90DF90CF9008951F920F92BD
:1038A0000FB60F9211242F933F938F939F93AF9353
:1038B000BF938091580390915903A0915A03B091FE
:1038C0005B033091570323E0230F2D3758F5019602
:1038D000A11DB11D20935703809358039093590362
:1038E000A0935A03B0935B0380915C0390915D03B6
:1038F000A0915E03B0915F030196A11DB11D80935D
:103900005C0390935D03A0935E03B0935F03BF914C
:10391000AF919F918F913F912F910F900FBE0F907C
:103920001F90189526E8230F0296A11DB11DD2CF36
:103930003FB7F89480915C0390915D03A0915E0382
:10394000B0915F0326B5A89B05C02F3F19F00196E3
:10395000A11DB11D3FBFBA2FA92F982F8827BC01E9
:10396000CD01620F711D811D911D42E0660F771F11
:10397000881F991F4A95D1F708958F929F92AF9211
:10398000BF92CF92DF92EF92FF926B017C010E9477
:10399000981C4B015C01C114D104E104F104E9F06D
:1039A0000E94A9200E94981C681979098A099B091C
:1039B000683E73408105910570F321E0C21AD10879
:1039C000E108F10888EE880E83E0981EA11CB11C66
:1039D000C114D104E104F10429F7FF90EF90DF90C6
:1039E000CF90BF90AF909F908F900895789484B5BA
:1039F000826084BD84B5816084BD85B5826085BDEB
:103A000085B5816085BDEEE6F0E0808181608083D0
:103A1000E1E8F0E0108280818260808380818160B3
:103A20008083E0E8F0E0808181608083E1EBF0E07A
:103A3000808184608083E0EBF0E08081816080831E
:103A4000EAE7F0E080818460808380818260808307
:103A50008081816080838081806880831092C10032
:103A60000895883020F08D3008F48DE08E5020913C
:103A7000080190E4299F900111248770822B809384
:103A80007C0080917A00806480937A0080917A0033
:103A900086FDFCCF80917800909179000895843064
:103AA00081F028F4823099F08330A9F008958830AD
:103AB000A9F08930C9F08530B1F4809180008F7D04
:103AC00003C0809180008F7780938000089584B533
:103AD0008F7784BD089584B58F7DFBCF8091B00032
:103AE0008F778093B00008958091B0008F7DF9CFDB
:103AF000CF93DF9390E0FC01EA5BFD4E2491835A63
:103B00009D4EFC0184918823C9F090E0880F991F95
:103B1000FC01E258FD4EA591B491FC01EC58FD4E1C
:103B2000C591D49161110DC09FB7F8948C912095E7
:103B300082238C938881282328839FBFDF91CF9194
:103B40000895623051F49FB7F8943C91822F80958C
:103B500083238C93E8812E2BEFCF8FB7F894EC91D1
:103B60002E2B2C938FBFEACF1F93CF93DF93282F59
:103B700030E0F901E15DFD4E8491F901EA5BFD4E13
:103B8000D491F901E35AFD4EC491CC23A9F0162F2C
:103B900081110E944F1DEC2FF0E0EE0FFF1FEC583B
:103BA000FD4EA591B4918FB7F894EC91111108C016
:103BB000D095DE23DC938FBFDF91CF911F910895C5
:103BC000DE2BF8CFFC01918D228D892F90E0805C57
:103BD0009F4F821B91098F7399270895FC01918D46
:103BE000828D981731F0828DE80FF11D858D90E060
:103BF00008958FEF9FEF0895FC01918D828D9817A6
:103C000061F0A28DAE0FBF2FB11D5D968C91928D8C
:103C10009F5F9F73928F90E008958FEF9FEF0895BD
:103C2000FC01538D448D252F30E0842F90E0821BC2
:103C3000930B541710F0CF960895019708958FE6CF
:103C40009FE1892B49F080E090E0892B29F00E94C8
:103C50006F1F81110C9400000895FC01A48DA80F22
:103C6000B92FB11DA35ABF4F2C91848D90E00196BE
:103C70008F739927848FA689B7892C93A089B189DE
:103C80008C9180648C93938D848D981306C00288E8
:103C9000F389E02D80818F7D80830895CF93DF931A
:103CA000EC01888D8823B9F0AA89BB89E889F98954
:103CB0008C9185FD03C0808186FD0DC00FB607FC89
:103CC000F7CF8C9185FFF2CF808185FFEDCFCE01BC
:103CD0000E942D1EE9CFDF91CF910895EF92FF92C0
:103CE0000F931F93CF93DF93EC0181E0888F9B8D1F
:103CF0008C8D981316C0E889F989808185FF11C0E1
:103D0000EE89FF896083E889F989808180648083F6
:103D100081E090E0DF91CF911F910F91FF90EF90A4
:103D20000895F62E0B8D10E00F5F1F4F0F731127B4
:103D3000E02E8C8D8E110CC00FB607FCFACFE889EF
:103D4000F989808185FFF5CFCE010E942D1EF1CF2C
:103D5000EB8DEC0FFD2FF11DE35AFF4FF0820B8F1F
:103D6000EA89FB8980818062D2CFCF92DF92EF9285
:103D7000FF921F93CF93DF93EC016A017B01122F17
:103D8000E889F98982E08083C11481EED806E104D4
:103D9000F104A1F060E079E08DE390E0A7019601E5
:103DA0000E94AA2021503109410951095695479591
:103DB00037952795211580E1380798F0E889F9892A
:103DC000108260E874E88EE190E0A70196010E94FD
:103DD000AA20215031094109510956954795379537
:103DE0002795EC85FD853083EE85FF852083188E31
:103DF000EC89FD891083EA89FB8980818061808359
:103E0000EA89FB89808188608083EA89FB898081D7
:103E100080688083EA89FB8980818F7D8083DF9140
:103E2000CF911F91FF90EF90DF90CF9008951F9258
:103E30000F920FB60F9211242F938F939F93EF93AE
:103E4000FF93E0917003F09171038081E09176031C
:103E5000F091770382FD1BC09081809179038F5F81
:103E60008F7320917A03821741F0E0917903F0E09B
:103E7000E05AFC4F958F80937903FF91EF919F91CA
:103E80008F912F910F900FBE0F901F9018958081EA
:103E9000F4CF1F920F920FB60F9211242F933F93DE
:103EA0004F935F936F937F938F939F93AF93BF9342
:103EB000EF93FF9380E693E00E942D1EFF91EF9118
:103EC000BF91AF919F918F917F916F915F914F9132
:103ED0003F912F910F900FBE0F901F90189580E685
:103EE00093E00E94E21D21E0892B09F420E0822F5B
:103EF0000895E0E6F3E01382128288EE93E0A0E0FA
:103F0000B0E084839583A683B7838DE192E09183AB
:103F1000808385EC90E09587848784EC90E0978798
:103F2000868780EC90E0918B808B81EC90E0938B86
:103F3000828B82EC90E0958B848B86EC90E0978B63
:103F4000868B118E128E138E148E0895AF92BF92AF
:103F5000CF92DF92EF92FF920F931F93CF93DF9355
:103F60006C017B018B01040F151FEB015E01AE1884
:103F7000BF08C017D10759F06991D601ED91FC91A6
:103F80000190F081E02DC6010995892B79F7C501D3
:103F9000DF91CF911F910F91FF90EF90DF90CF9025
:103FA000BF90AF900895FB0101900020E9F7319791
:103FB000AF01461B570BDC01ED91FC910280F381B0
:103FC000E02D0994DB0114964D915C9115976D914C
:103FD0007C91DC01ED91FC910280F381E02D09944C
:103FE0006115710511F00C94D31F90E080E00895E5
:103FF0006BE272E00C94D31F0F931F93CF93DF9368
:104000008C01D0E0C0E06115710519F00E94D31F4A
:10401000EC01C8010E94F81F8C0F9D1FDF91CF910A
:104020001F910F910895FC01808191810C946E2164
:10403000CF93DF93EC0188819981009711F00E9462
:104040006E21198218821D821C821B821A82DF91C6
:10405000CF9108950F931F93CF93DF93EC018B01C2
:104060006F5F7F4F888199810E94F721009751F0FF
:10407000998388831B830A8381E0DF91CF911F910D
:104080000F91089580E0F9CFCF93DF93EC01888101
:104090009981892B49F08A819B818617970720F0A7
:1040A00081E0DF91CF910895CE010E942A208823DC
:1040B000C1F38C819D81892B99F7E881F981108268
:1040C000EFCFEF92FF920F931F93CF93DF93EC010B
:1040D0007B018A01BA010E94442081110BC0CE01EC
:1040E0000E941820CE01DF91CF911F910F91FF9078
:1040F000EF9008951D830C83B701888199810E94F8
:10410000C922F0CFFC011182108213821282158223
:1041100014826115710551F0FB0101900020E9F74F
:104120003197AF01461B570B0C94612008950E94F4
:10413000B42208950E94F61C0E9499200E947209E0
:10414000CFE1DEE10E94D70A2097E1F30E941F1E13
:10415000F9CF0895A1E21A2EAA1BBB1BFD010DC0C9
:10416000AA1FBB1FEE1FFF1FA217B307E407F50727
:1041700020F0A21BB30BE40BF50B661F771F881F03
:10418000991F1A9469F760957095809590959B0199
:10419000AC01BD01CF010895EE0FFF1F0590F49112
:1041A000E02D09940F931F93CF93DF9382309105F5
:1041B00010F482E090E0E091FF03F091000430E021
:1041C00020E0B0E0A0E0309799F42115310509F422
:1041D0004AC0281B390B24303105D8F58A819B81D0
:1041E0006115710589F1FB0193838283FE0111C082
:1041F000408151810281138148175907E0F0481727
:10420000590799F4109761F012960C931297139630
:104210001C933296CF01DF91CF911F910F9108959A
:104220000093FF0310930004F4CF2115310551F0E2
:104230004217530738F0A901DB019A01BD01DF01E4
:10424000F801C1CFEF01F9CF909300048093FF03F1
:10425000CDCFFE01E20FF31F8193919322503109DC
:1042600039832883D7CF2091FD033091FE03232B80
:1042700041F420910201309103013093FE03209319
:10428000FD0320910001309101012115310541F418
:104290002DB73EB74091040150910501241B350B09
:1042A000E091FD03F091FE03E217F307A0F42E1B4B
:1042B0003F0B2817390778F0AC014E5F5F4F24178A
:1042C000350748F04E0F5F1F5093FE034093FD03E8
:1042D000819391939FCFF0E0E0E09CCFCF93DF9369
:1042E0000097E9F0FC01329713821282A091FF033C
:1042F000B0910004ED0130E020E01097A1F420819E
:104300003181820F931F2091FD033091FE03281706
:10431000390709F061C0F093FE03E093FD03DF91DC
:10432000CF910895EA01CE17DF07E8F54A815B8156
:104330009E0141155105B1F7E901FB83EA834991DB
:104340005991C40FD51FEC17FD0761F4808191814D
:104350000296840F951FE901998388838281938156
:104360009B838A83F0E0E0E012968D919C911397F5
:104370000097B9F52D913C911197CD010296820FCE
:10438000931F2091FD033091FE032817390739F65A
:10439000309751F5109200041092FF03B093FE0382
:1043A000A093FD03BCCFD383C28340815181840F8E
:1043B000951FC817D90761F44E5F5F4F88819981B7
:1043C000480F591F518340838A819B819383828345
:1043D0002115310509F0B0CFF0930004E093FF03FD
:1043E0009ECFFD01DC01C0CF13821282D7CFB0E097
:1043F000A0E0EDEFF1E20C94D2228C01009751F491
:10440000CB010E94D2208C01C801CDB7DEB7E0E11C
:104410000C94EE22FC01E60FF71F9C01225031099B
:10442000E217F30708F49DC0D901CD91DC911197F3
:10443000C617D70798F0C530D10530F3CE010497E1
:104440008617970708F3C61BD70B2297C193D19302
:104450006D937C93CF010E946E21D6CF5B01AC1A85
:10446000BD0A4C018C0E9D1EA091FF03B09100046B
:10447000512C412CF12CE12C109731F58091FD034A
:104480009091FE038815990509F05CC04616570601
:1044900008F058C08091000190910101009741F40B
:1044A0008DB79EB74091040150910501841B950B77
:1044B000E817F90708F055C0F093FE03E093FD03F9
:1044C000F90171836083A0CF8D919C911197129611
:1044D0006C90129713967C901397A815B90559F50F
:1044E0006C0142E0C40ED11CCA14DB0420F1AC0103
:1044F0004A195B09DA011296159780F0628273827D
:1045000051834083D9016D937C93E114F10471F0E0
:10451000D7011396FC93EE93129776CF22968C0FC9
:104520009D1FF90191838083F301EFCFF093000485
:10453000E093FF0369CF4816590608F42C017D016A
:10454000D3019ACFCB010E94D2207C01009749F081
:10455000AE01B8010E94B922C8010E946E218701F4
:1045600053CF10E000E050CF81E090E0F8940C943D
:104570000723FB01DC0102C001900D924150504025
:10458000D8F70895DC0101C06D9341505040E0F729
:104590000895FB01DC0101900D920020E1F70895E0
:1045A0002F923F924F925F926F927F928F929F9243
:1045B000AF92BF92CF92DF92EF92FF920F931F9331
:1045C000CF93DF93CDB7DEB7CA1BDB0B0FB6F894E2
:1045D000DEBF0FBECDBF09942A88398848885F8422
:1045E0006E847D848C849B84AA84B984C884DF8093
:1045F000EE80FD800C811B81AA81B981CE0FD11D77
:104600000FB6F894DEBF0FBECDBFED01089519E0DF
:10461000C7E4D9E004C0FE010E94CC202196C83432
:10462000D107C9F7F894FFCF000001048000FFFF15
:10463000014D656E75003E20003C203720536567B4
:104640006D656E7420446973706C61790077687968
:1046500020796F75206675636B696E67206B69647E
:1046600064696E670057656C636F6D65203A290059
:10467000312E20546573742031342050696E2047E8
:104680006174652020202020494300322E2054658B
:104690007374203535352054696D65722020494387
:1046A00000332E20546573742037205365676D6581
:1046B0006E7420202020202020446973706C617962
:1046C00000342E2041626F75742054686973205045
:1046D000726F6A6563740000000000290C580CC6F4
:1046E0000BF20BC90BD00BE30B000000003514A636
:1046F0001FC60BB70E9720650F660F850F6D0F79DC
:104700000FB80E650F4111C810950FCE0F07104C52
:1047100010C9106910000000003514A61FC60BB7A1
:104720000E5C15650F660F850F6D0F790FB80E655E
:104730000F4111E3161D1BE11A07104C10C9106937
:1047400010000000006E1EA61F101E4E1EE21DFC73
:064750001DEE1D0D0A0024
:107E000001C0B7C0112484B790E89093610010922C
:107E10006100882361F0982F9A70923041F081FFC1
:107E200002C097EF94BF282E80E0C6D0E9C085E05D
:107E30008093810082E08093C00088E18093C1003C
:107E400080E18093C40086E08093C2008EE0B4D0CD
:107E5000259A84E020E33CEF91E030938500209365
:107E6000840096BBB09BFECF1D9AA8954091C000A0
:107E700047FD02C0815089F793D0813479F490D0C6
:107E8000182FA0D0123811F480E004C088E0113817
:107E900009F083E07ED080E17CD0EECF823419F40B
:107EA00084E198D0F8CF853411F485E0FACF853598
:107EB00041F476D0C82F74D0D82FCC0FDD1F82D0DC
:107EC000EACF863519F484E085D0DECF843691F58B
:107ED00067D066D0F82E64D0D82E00E011E05801AB
:107EE0008FEFA81AB80A5CD0F80180838501FA10D8
:107EF000F6CF68D0F5E4DF1201C0FFCF50E040E0DC
:107F000063E0CE0136D08E01E0E0F1E06F0182E067
:107F1000C80ED11C4081518161E0C8012AD00E5F9A
:107F20001F4FF601FC10F2CF50E040E065E0CE01BB
:107F300020D0B1CF843771F433D032D0F82E30D086
:107F400041D08E01F80185918F0123D0FA94F11070
:107F5000F9CFA1CF853739F435D08EE11AD085E934
:107F600018D084E197CF813509F0A9CF88E024D0DB
:107F7000A6CFFC010A0167BFE895112407B600FCF3
:107F8000FDCF667029F0452B19F481E187BFE89594
:107F900008959091C00095FFFCCF8093C60008958E
:107FA0008091C00087FFFCCF8091C00084FD01C09C
:107FB000A8958091C6000895E0E6F0E098E19083EE
:107FC00080830895EDDF803219F088E0F5DFFFCF80
:107FD00084E1DFCFCF93C82FE3DFC150E9F7CF9122
:027FE000F1CFDF
:027FFE00000879
:00000001FF
